:100000000C9492000C94BA000C94BA000C94BA00B0
:100010000C94BA000C94BA000C94BA000C94BA0078
:100020000C94BA000C94BA000C94A6040C94150518
:100030000C94BA000C94BA000C94BA000C94BA0058
:100040000C94BA000C94BA000C94BA000C94BA0048
:100050000C94BA000C94BA000C94BA000C945C0492
:100060000C94BA000C94BA000C94BA000C94BA0028
:100070000C94BA000C94BA000C94BA000C94BA0018
:100080000C94BA000C94BA000C94BA000C94BA0008
:100090000C94BA000C94BA000C94BA000C94BA00F8
:1000A0000C94BA000C94BA000C94BA00080B00022D
:1000B0000202000009040000010202000005240001
:1000C0001001052401010104240206052406000193
:1000D0000705810310004009040100020A00000026
:1000E00007050202400000070583024000000403E8
:1000F000090412010002EF02014041233680000191
:100100000102030141726475696E6F204C4C43001B
:1001100041726475696E6F204C656F6E6172646FB9
:1001200000008F0711241FBECFEFDAE0DEBFCDBF86
:1001300011E0A0E0B1E0ECEFF0E102C005900D921B
:10014000AA35B107D9F721E0AAE5B1E001C01D92B7
:10015000A53EB207E1F710E0C2E9D0E004C0219764
:10016000FE010E947608C139D107C9F70E94DD0758
:100170000C947C080C940000FC0180917801882389
:1001800011F13FB7F89482E08093E9002091F200EA
:10019000822F90E01816190614F481E090E088236D
:1001A00039F0289844E6409377014091F10040836C
:1001B000222339F02091F200211103C02BE6209375
:1001C000E8003FBF08958FEF9FEF08952FB7F89491
:1001D00083E08093E9009091E800892F807295FF79
:1001E00004C09091F20080E4891B2FBF0895CF9343
:1001F000DF931F92CDB7DEB76983DC01ED91FC91EF
:100200000280F381E02D41E050E0BE016F5F7F4F3F
:1002100009950F90DF91CF91089583E08093E900D5
:100220008091F200882319F08AE38093E800089512
:100230000E94E60090E00895CF93DF931F92CDB720
:10024000DEB7FC018485958597FD08C02FEF3FEF51
:10025000358724870F90DF91CF910895CE010196C5
:100260000E94BC00019719F4898190E0F3CF8FEFD1
:100270009FEFF0CF0F931F93CF93DF931F92CDB7D4
:10028000DEB78C01FC018485958597FF0BC0CE01FC
:1002900001960E94BC00019771F4898190E0F801F9
:1002A00095878487F801848595850F90DF91CF919C
:1002B0001F910F9108958FEF9FEFF1CFFC0184857F
:1002C000958597FD0BC09FB7F89482E08093E90075
:1002D0008091F2009FBF90E0019608959FB7F89437
:1002E00082E08093E9008091F2009FBF90E0089542
:1002F0003FB7F8948091710190917201A0917301C0
:10030000B091740126B5A89B05C02F3F19F0019646
:10031000A11DB11D3FBFBA2FA92F982F8827BC015F
:10032000CD01620F711D811D911D42E0660F771F87
:10033000881F991F4A95D1F70895CF92DF92EF92C7
:10034000FF920E9478016B017C010E9478016C1978
:100350007D098E099F09683E734081059105A8F3C8
:10036000FF90EF90DF90CF9008958F929F92AF9281
:10037000BF92CF92DF92EF92FF920F931F93CF9392
:10038000DF936C017B018A0180911201882309F4BB
:1003900058C080917801882309F453C08091760178
:1003A00080FF05C08091E00082608093E000E8015A
:1003B000B12C8AEFA82E93E0892E2AE3922E209763
:1003C00011F4BB20B9F10E94E600811106C0AA9485
:1003D000AA20B9F10E949D01F2CF8C171D0611F0E1
:1003E0000CF08C2F9FB7F8948092E9002091E800E0
:1003F00025FD02C09FBFE3CF282F30E0C21BD30BE7
:10040000F701815020F041914093F100FACFE20EC4
:10041000F31EBB2021F09092E800B12CEBCF80912D
:10042000E80085FDE7CF9092E800BB24B3942097C5
:1004300009F3F3CF5D9884E68093750110161106D9
:100440003CF081E090E0F6019383828310E000E0CD
:10045000C801DF91CF911F910F91FF90EF90DF9036
:10046000CF90BF90AF909F908F900895409168017A
:10047000509169012091660130916701421753073D
:10048000B4F49091E8009570E1F39091E80092FD4A
:1004900019C08093F10080916801909169010196E3
:1004A0008F739927892B19F48EEF8093E800809140
:1004B00068019091690101969093690180936801A8
:1004C00081E0089580E00895EF92FF920F931F93CB
:1004D000CF93DF93F82E192FE62E042F81E0860F9D
:1004E000880F0E94360283E00E943602CF2DD12F62
:1004F000EC0EFD2EF11CCE15DF05B9F007FF13C081
:10050000FE0184910E943602182F80E00E9436027C
:10051000812321968111EFCFDF91CF911F910F9110
:10052000FF90EF9008958881EDCF81E0F5CFDF92C5
:10053000EF92FF920F931F93CF93DF93D82E8A01F0
:10054000EB017B01E40EF51ECE15DF0559F0D7FE59
:1005500012C0FE0184910E94360221968111F4CFCF
:100560000FEF1FEFC801DF91CF911F910F91FF9007
:10057000EF90DF9008958881EECF615030F02091A8
:10058000F100FC0120830196F8CF289884E680933F
:100590007701089580915E0181110DC082E0809302
:1005A0005A0184E080935B0110925D0110925C011E
:1005B00081E080935E018AE591E008950F931F9397
:1005C000CF93DF931F92CDB7DEB782E0898342E4F9
:1005D00050E06CEA70E080E80E9497020E94CA0234
:1005E000DC0112960D911C910115110589F0D801BD
:1005F000ED91FC910280F381E02DBE016F5F7F4F92
:10060000C801099597FD04C0F80100851185ECCF5C
:1006100089810F90DF91CF911F910F91089580E014
:10062000089590E080E00895CF93DF931F92CDB7B7
:10063000DEB7898341E050E0BE016F5F7F4F80E00D
:100640000E94970221E0019709F020E0822F0F908D
:10065000DF91CF910895EF92FF920F931F93CF9365
:10066000DF937C018B01CB010196880F0E9414035C
:1006700083E00E941403E701E00EF11EEC16FD0674
:1006800081F089910E941403182F80E00E941403C6
:100690008123A1F7DF91CF911F910F91FF90EF90F0
:1006A000089581E0F7CFFC0182818F5BFB0180839D
:1006B00081E008950F931F93CF93DF93CDB7DEB7FB
:1006C000C456D1090FB6F894DEBF0FBECDBFFC01F2
:1006D000DB019C919E5F9C939E01295F3F4F8AE5C1
:1006E000D9011D928A95E9F788E089838BE08A8396
:1006F00022E02C8391E09D839E8339E0398764E07A
:100700006A879E879F873A8B44E24B8B9C8BA0E045
:10071000B1E0BE8BAD8B09E010E0188F0F8B998F85
:100720003B8F6C8F2F8F98A353E059A387E08CA346
:100730004DA39EA3B8A7AFA3A1E4B0E0BAA7A9A711
:1007400086E08BA74CA72DA79EA79FA789AB4AAB96
:100750002BAB2CAB2DAB3FAB48AF59AF9AAF5BAFD8
:100760009CAF2DAF9EAF21963FAF219722964FAF02
:10077000229723965FAF239724962FAF2497259631
:100780006FAF259726969FAF269727969FAF2797FF
:1007900028969FAF28972A963FAF2A9745E02B9639
:1007A0004FAF2B972D962FAF2D9760E470E02F96CB
:1007B0007FAF6EAF2F9763964FAF639785E26496D6
:1007C0008FAF649765969FAF659766969FAF669764
:1007D00067969FAF679768963FAF689769964FAFE8
:1007E00069976B962FAF6B976D967FAF6EAF6D97D6
:1007F000A1964FAFA197A2968FAFA297A3969FAF56
:10080000A397A4969FAFA497A5965FAFA597928153
:100810009B839B879F5F9A8F9D8F83812C968FAF41
:100820002C978F5F80686A968FAF6A9744E650E096
:10083000BE016F5F7F4F80E00E949702CC59DF4F6F
:100840000FB6F894DEBF0FBECDBFDF91CF911F91E1
:100850000F910895DB0113962C9113972330F9F42F
:10086000FC0112968C91813081F4828593850097EA
:10087000B1F0FC0101900020E9F73197BF01681B3E
:10088000790B0E942B0390E00895823019F484853F
:100890009585EDCF833019F486859785E8CF90E074
:1008A00080E0089584E0E0E5F1E0DB0101900D9245
:1008B0008A95E1F784E008951F920F920FB60F9288
:1008C00011242F933F938F939F93AF93BF93809166
:1008D0006D0190916E01A0916F01B0917001309106
:1008E0006C0123E0230F2D3758F50196A11DB11D92
:1008F00020936C0180936D0190936E01A0936F0122
:10090000B09370018091710190917201A091730177
:10091000B09174010196A11DB11D80937101909356
:100920007201A0937301B0937401BF91AF919F9135
:100930008F913F912F910F900FBE0F901F901895A0
:1009400026E8230F0296A11DB11DD2CF1F920F9250
:100950000FB60F9211248F939F938091E100909195
:10096000E100937F9093E10083FF0FC01092E900B4
:1009700091E09093EB001092EC0092E39093ED00E5
:100980001092780198E09093F00082FF22C093E0EB
:100990009093E9009091F200992319F09AE39093D3
:1009A000E80090917501992341F090917501915063
:1009B00090937501911101C05D9A909177019923EF
:1009C00041F090917701915090937701911101C07E
:1009D000289A84FF18C08091E2008E7E8160809307
:1009E000E2008091E1008F7E8093E10080917601AA
:1009F0008E7E8061809376019F918F910F900FBEC4
:100A00000F901F90189580FFF7CF8091E2008E7EA7
:100A100080618093E2008091E1008E7E8093E1000E
:100A2000809176018E7E8160E5CF1F920F920FB686
:100A30000F921124CF92DF92EF92FF920F931F93A8
:100A40002F933F934F935F936F937F938F939F93D6
:100A5000AF93BF93EF93FF93CF93DF93CDB7DEB701
:100A60006C97DEBFCDBF1092E9008091E80083FF54
:100A700025C068E0CE0145960E94BD0282EF8093BA
:100A8000E8008D8987FF39C09091E80090FFFCCF86
:100A9000982F907609F034C19E894F89588D2F89FF
:100AA000F88C911131C0803861F580916B01809391
:100AB000F1001092F1008EEF8093E8006C960FB673
:100AC000F894DEBF0FBECDBFDF91CF91FF91EF91C4
:100AD000BF91AF919F918F917F916F915F914F9156
:100AE0003F912F911F910F91FF90EF90DF90CF904A
:100AF0000F900FBE0F901F9018959EEF9093E800F7
:100B0000C7CF1092F100D5CF913059F48111D3CFD6
:100B10004130510581F680916B018D7F80936B018F
:100B2000CACF933049F48111C6CF4130510519F62F
:100B300080916B018260F2CF953041F48091E800A2
:100B400080FFFCCF20682093E300B5CF963009F0FA
:100B5000A9C00B8D1C8D22E01092E9001092690152
:100B600010926801F2122EC0109267011092660175
:100B70000E94DE021F8299E09983FA8291E09E83AF
:100B800090EA98879AEF99872091680130916901DE
:100B9000275F3F4F3C832B838D831092E900109297
:100BA000690110926801109367010093660149E0A2
:100BB00050E0BE016F5F7F4F80E00E9497020E946D
:100BC000DE0279CF10936701009366010E94CA028A
:100BD000DC0112960D911C910115110509F451C10A
:100BE000D801ED91FC910480F581E02DBE016B5E92
:100BF0007F4FC8010995009709F03EC1F8010085B3
:100C00001185EACFF3E0FF120EC08F89882309F423
:100C100040C0823061F440E860E180E191E00E94F0
:100C20006402811148CF81E28093EB0047CF81308D
:100C300029F440E86BE084E091E0F1CF833099F74C
:100C40000E94CA02DC011296ED90FC908E010F5FAB
:100C50001F4F6801E114F10479F0D701ED91FC9187
:100C60000680F781E02DB801C7010995080F111D15
:100C7000F701E084F184EECFD8011C92F6010190D7
:100C80000020E9F73197BF016C197D0940E0C601EA
:100C9000C6CF6EEE70E0FB01449150E080E80E9408
:100CA000970209CF973009F4BECF983021F481E044
:100CB0008093F10000CF993009F0FDCE837009F0E8
:100CC000B2CFE1E0F1E081E031E096E3219122232F
:100CD00071F08093E9003093EB00DF0111972C91C4
:100CE0002093EC009093ED008F5F873079F78EE7CB
:100CF0008093EA001092EA008F8980937801DBCE1E
:100D00008B8D9C8D1092E900109269011092680100
:100D10009093670180936601898D811192C08E89BD
:100D20009D89913A49F4813209F07DCF47E050E046
:100D30006BE071E080E0B3CF913209F074CF833281
:100D400069F48F89988DB0E0A0E0809307019093BB
:100D50000801A0930901B0930A01ADCE803269F475
:100D60008091E80082FFFCCF67E08BE091E00E9479
:100D7000BD028BEF8093E8009ECE823209F09BCEBD
:100D80008F8980931201EEEFFFE7859194918B3F5D
:100D90009C4D51F1E0E0F8E080910B0190910C0145
:100DA000A0910D01B0910E01803B9440A105B105C9
:100DB000F1F48091120180FD1AC0EE3F8AE0F8073D
:100DC00089F587E797E7918380838091600080931E
:100DD0006A0188E19BE00FB6F894A89580936000C3
:100DE0000FBE9093600067CEEEEFFAE0D5CF808122
:100DF00091818737974709F05ECEA8958091600072
:100E000088618093600080916A0180936000EE3F6A
:100E10002AE0F20789F08091FE0A9091FF0A9183FF
:100E2000808349CE808191818737980751F29093D2
:100E3000FF0A8093FE0AC5CF1092FF0A1092FE0AA5
:100E40003ACE0E94CA02DC0112960D911C91011546
:100E5000110509F4E8CED801ED91FC910190F081E3
:100E6000E02DBE016B5E7F4FC8010995811123CE35
:100E7000F80100851185EBCF181619060CF41BCE6E
:100E8000D2CEF1E0FF12BECE62EF70E004CFCF937E
:100E9000DF93FC01DB01818114963C911497682F4C
:100EA000630F7727771F683071059CF5C281D38166
:100EB000209739F5B383A283908112969C93129761
:100EC00013968C93139715968C911597890F8083A1
:100ED00090E080E0831708F52181C22FD0E0BE01A9
:100EE00060507F4F16964D915C911797480F591F90
:100EF000EA014881EB0148832F5F21830196EACF05
:100F0000EA014885598541155105D1F7B987A88768
:100F1000D3CF80E0DF91CF91089581E0FBCFE9E767
:100F2000F1E01382128288EE93E0A0E0B0E08483C7
:100F30009583A683B78387E191E0918380838FEFC8
:100F40009FEF95878487E9ECF1E082E084838583D5
:100F500083ED91E0978386831186108689E291E084
:100F60009183808380E8828781E883870E94CA0218
:100F700069EC71E00E944707E5EDF1E081E08483D0
:100F8000858385EE91E0978386831186108685E3BD
:100F900091E0918380838DE391E0938782878AE457
:100FA00091E09587848785E591E0978786870E9401
:100FB000CA0265ED71E00C944707789484B58260AD
:100FC00084BD84B5816084BD85B5826085BD85B5ED
:100FD000816085BD80916E00816080936E0010926B
:100FE00081008091810082608093810080918100E6
:100FF0008160809381008091800081608093800077
:101000008091910082608093910080919100816035
:1010100080939100809190008160809390008091F6
:10102000C10084608093C1008091C1008260809380
:10103000C1008091C10081608093C1008091C30094
:1010400081608093C3008091C00082608093C00063
:101050008091C20081608093C20080917A00846098
:1010600080937A0080917A00826080937A008091E8
:101070007A00816080937A0080917A008068809302
:101080007A001092780110926B0110927601809193
:10109000D70081608093D70080EA8093D80089B51B
:1010A000806189BD89B5826089BD09B400FEFDCF2C
:1010B0000E949D018091D8008F7C80618093D80030
:1010C0008091E000807F8093E0008091E1008E7E3F
:1010D0008093E1008DE08093E200559A209AC0E071
:1010E000D0E02097F1F30E940000FBCFEE0FFF1F2E
:0C10F0000590F491E02D0994F894FFCFD6
:1010FC0000C18081000000FFFFFFFF00E100000045
:10110C0000000000000000F700B50118010D015EA1
:10111C00011C013A01000000000F035A0311035295
:10112C0004000000000F0311032A045303536D61E4
:10113C0072744361744C6F616600476173706572C1
:0A114C004D494449003030303100B5
:00000001FF
