:100000000C9498000C94C0000C94C0000C94C00098
:100010000C94C0000C94C0000C94C0000C94C00060
:100020000C94C0000C94C0000C94DA040C94580595
:100030000C94C0000C94C0000C94C0000C94C00040
:100040000C94C0000C94C0000C94C0000C94C00030
:100050000C94C0000C94C0000C94C0000C9490044C
:100060000C94C0000C94C0000C94C0000C94C00010
:100070000C94C0000C94C0000C94C0000C94C00000
:100080000C94C0000C94C0000C94C0000C94C000F0
:100090000C94C0000C94C0000C94C0000C94C000E0
:1000A0000C94C0000C94C0000C94C000080B00021B
:1000B0000202000009040000010202000005240001
:1000C0001001052401010104240206052406000193
:1000D0000705810310004009040100020A00000026
:1000E00007050202400000070583024000000403E8
:1000F000090412010002EF02014041233680000191
:100100000102030141726475696E6F204C4C43001B
:1001100041726475696E6F204C656F6E6172646FB9
:1001200000070605040100080A0B0C0D0900D207A0
:1001300011241FBECFEFDAE0DEBFCDBF11E0A0E09B
:10014000B1E0E2E2F3E102C005900D92A036B10702
:10015000D9F721E0A0E6B1E001C01D92AE3EB207A2
:10016000E1F710E0C8E9D0E004C02197FE010E9449
:100170008909C739D107C9F70E9420080C948F0953
:100180000C940000FC0180918101882311F13FB79C
:10019000F89482E08093E9002091F200822F90E0B1
:1001A0001816190614F481E090E0882339F0289895
:1001B00044E6409380014091F1004083222339F0CE
:1001C0002091F200211103C02BE62093E8003FBFED
:1001D00008958FEF9FEF0895CF93DF931F92CDB7D0
:1001E000DEB76983DC01ED91FC910280F381E02DA3
:1001F00041E050E0BE016F5F7F4F09950F90DF91A6
:10020000CF910895CF93DF931F92CDB7DEB7FC0156
:100210008485958597FD08C02FEF3FEF35872487AC
:100220000F90DF91CF910895CE0101960E94C200F8
:10023000019719F4898190E0F3CF8FEF9FEFF0CF12
:100240000F931F93CF93DF931F92CDB7DEB78C012F
:10025000FC018485958597FF0BC0CE0101960E9415
:10026000C200019771F4898190E0F8019587848735
:10027000F801848595850F90DF91CF911F910F91A3
:1002800008958FEF9FEFF1CFFC018485958597FD51
:100290000BC09FB7F89482E08093E9008091F20050
:1002A0009FBF90E0019608959FB7F89482E08093F5
:1002B000E9008091F2009FBF90E008953FB7F89465
:1002C00080917C0190917D01A0917E01B0917F0190
:1002D00026B5A89B05C02F3F19F00196A11DB11DA1
:1002E0003FBFBA2FA92F982F8827BC01CD01620FDD
:1002F000711D811D911D42E0660F771F881F991F98
:100300004A95D1F70895CF92DF92EF92FF920E9423
:100310005E016B017C010E945E016C197D098E09F2
:100320009F09683E734081059105A8F3FF90EF9007
:10033000DF90CF9008958093E9008091F2008823A8
:1003400019F08AE38093E800089583E00C949B0100
:1003500040916E0150916F0120916C0130916D01BF
:1003600042175307B4F49091E8009570E1F390912F
:10037000E80092FD19C08093F10080916E01909188
:100380006F0101968F739927892B19F48EEF809353
:10039000E80080916E0190916F01019690936F013A
:1003A00080936E0181E0089580E00895EF92FF92BE
:1003B0000F931F93CF93DF93F82E192FE62E042F60
:1003C00081E0860F880F0E94A80183E00E94A801A7
:1003D000CF2DD12FEC0EFD2EF11CCE15DF05B9F07F
:1003E00007FF13C0FE0184910E94A801182F80E02E
:1003F0000E94A801812321968111EFCFDF91CF9137
:100400001F910F91FF90EF9008958881EDCF81E0CB
:10041000F5CFDF92EF92FF920F931F93CF93DF936D
:10042000D82E8A01EB017B01E40EF51ECE15DF0507
:1004300059F0D7FE12C0FE0184910E94A8012196B6
:100440008111F4CF0FEF1FEFC801DF91CF911F9102
:100450000F91FF90EF90DF9008958881EECF2FB736
:10046000F89487708093E9009091E800892F80725A
:1004700095FF04C09091F20080E4891B2FBF08957E
:1004800083E00E942F0290E008957F928F929F92C6
:10049000AF92BF92CF92DF92EF92FF920F931F9392
:1004A000CF93DF93C82E8B017A0180918101811156
:1004B00010C08FEF9FEFDF91CF911F910F91FF90B1
:1004C000EF90DF90CF90BF90AF909F908F907F90F4
:1004D00008958091720180FF05C08091E0008260E4
:1004E0008093E000CE2DDF2DD12C8AEFB82E8C2DFD
:1004F0008770982E8C2D8072882E8C2D8074782E8B
:100500009AE3A92E209719F4DD2009F44EC08C2D12
:100510000E942F02811106C0BA94BB2051F20E94A2
:100520008301F0CF8C171D0611F00CF08C2F9FB7B4
:10053000F8949092E9002091E80025FD02C09FBF49
:10054000E1CF282F30E0C21BD30B882029F0815047
:10055000A0F01092F100FBCFF801C7FC0AC0815057
:1005600050F041914093F100FACF44914093F10053
:1005700031968150D0F7020F131FDD2021F0A09299
:10058000E800D12CDCCF8091E80085FD07C0A09267
:10059000E800DD24D394209791F2F3CF209779F6E9
:1005A000772069F2A092E800CACF5D9884E6809334
:1005B0007101C70180CFCF93DF93EC0180911201CD
:1005C000882331F083E00E9445021816190634F0A2
:1005D00081E090E09B838A8380E090E0DF91CF917F
:1005E0000895615030F02091F100FC0120830196C4
:1005F000F8CF289884E68093800108958091640163
:1006000081110DC082E08093600184E080936101DC
:10061000109263011092620181E08093640180E690
:1006200091E008950F931F93CF93DF931F92CDB75F
:10063000DEB782E0898342E450E06CEA70E080E853
:100640000E9409020E94FE02DC0112960D911C918B
:100650000115110589F0D801ED91FC910280F3811B
:10066000E02DBE016F5F7F4FC801099597FD04C063
:10067000F80100851185ECCF89810F90DF91CF9132
:100680001F910F91089580E0089590E080E0089513
:10069000CF93DF931F92CDB7DEB7898341E050E05F
:1006A000BE016F5F7F4F80E00E94090221E0019749
:1006B00009F020E0822F0F90DF91CF910895EF9203
:1006C000FF920F931F93CF93DF937C018B01CB019C
:1006D0000196880F0E94480383E00E944803E701C7
:1006E000E00EF11EEC16FD0681F089910E94480390
:1006F000182F80E00E9448038123A1F7DF91CF915A
:100700001F910F91FF90EF90089581E0F7CFFC01CA
:1007100082818F5BFB01808381E008950F931F939B
:10072000CF93DF93CDB7DEB7C456D1090FB6F89497
:10073000DEBF0FBECDBFFC01DB019C919E5F9C9391
:100740009E01295F3F4F8AE5D9011D928A95E9F7FD
:1007500088E089838BE08A8322E02C8391E09D836B
:100760009E8339E0398764E06A879E879F873A8B4A
:1007700044E24B8B9C8BA0E0B1E0BE8BAD8B09E0DB
:1007800010E0188F0F8B998F3B8F6C8F2F8F98A352
:1007900053E059A387E08CA34DA39EA3B8A7AFA3B2
:1007A000A1E4B0E0BAA7A9A786E08BA74CA72DA724
:1007B0009EA79FA789AB4AAB2BAB2CAB2DAB3FAB16
:1007C00048AF59AF9AAF5BAF9CAF2DAF9EAF2196AC
:1007D0003FAF219722964FAF229723965FAF239783
:1007E00024962FAF249725966FAF259726969FAF17
:1007F000269727969FAF279728969FAF28972A96E8
:100800003FAF2A9745E02B964FAF2B972D962FAFF2
:100810002D9760E470E02F967FAF6EAF2F976396B1
:100820004FAF639785E264968FAF649765969FAFED
:10083000659766969FAF669767969FAF679768962E
:100840003FAF689769964FAF69976B962FAF6B97DD
:100850006D967FAF6EAF6D97A1964FAFA197A296A1
:100860008FAFA297A3969FAFA397A4969FAFA4978D
:10087000A5965FAFA59792819B839B879F5F9A8F79
:100880009D8F83812C968FAF2C978F5F80686A969F
:100890008FAF6A9744E650E0BE016F5F7F4F80E004
:1008A0000E940902CC59DF4F0FB6F894DEBF0FBE8D
:1008B000CDBFDF91CF911F910F910895DB0113966A
:1008C0002C9113972330F9F4FC0112968C9181300E
:1008D00081F4828593850097B1F0FC01019000209E
:1008E000E9F73197BF01681B790B0E945F0390E025
:1008F0000895823019F484859585EDCF833019F4FD
:1009000086859785E8CF90E080E0089584E0E6E56D
:10091000F1E0DB0101900D928A95E1F784E0089502
:100920001F920F920FB60F9211242F933F938F9324
:100930009F93AF93BF938091780190917901A0919B
:100940007A01B0917B013091770123E0230F2D379D
:1009500058F50196A11DB11D209377018093780170
:1009600090937901A0937A01B0937B0180917C01EF
:1009700090917D01A0917E01B0917F010196A11D12
:10098000B11D80937C0190937D01A0937E01B09373
:100990007F01BF91AF919F918F913F912F910F90C8
:1009A0000FBE0F901F90189526E8230F0296A11DE9
:1009B000B11DD2CF1F920F920FB60F9211242F9319
:1009C0003F934F935F936F937F938F939F93AF93D7
:1009D000BF93CF93EF93FF93C091E1008091E1002B
:1009E000837F8093E100C3FF0FC01092E90081E094
:1009F0008093EB001092EC0082E38093ED00109264
:100A0000810188E08093F000C2FF1BC083E00E9458
:100A10009B0180917101882341F080917101815087
:100A200080937101811101C05D9A809180018823BA
:100A300041F080918001815080938001811101C03B
:100A4000289AC4FF23C08091E2008E7E816080934B
:100A5000E2008091E1008F7E8093E100809172013D
:100A60008E7E806180937201FF91EF91CF91BF9153
:100A7000AF919F918F917F916F915F914F913F9136
:100A80002F910F900FBE0F901F901895C0FFECCFC5
:100A90008091E2008E7E80618093E2008091E1008F
:100AA0008E7E8093E100809172018E7E8160DACF2C
:100AB0001F920F920FB60F921124CF92DF92EF92F6
:100AC000FF920F931F932F933F934F935F936F93D7
:100AD0007F938F939F93AF93BF93EF93FF93CF93A6
:100AE000DF93CDB7DEB76C97DEBFCDBF1092E900C4
:100AF0008091E80083FF25C068E0CE0145960E9402
:100B0000F10282EF8093E8008D8987FF39C09091D0
:100B1000E80090FFFCCF982F907609F034C19E89B1
:100B20004F89588D2F89F88C911131C0803861F52B
:100B3000809173018093F1001092F1008EEF809309
:100B4000E8006C960FB6F894DEBF0FBECDBFDF9104
:100B5000CF91FF91EF91BF91AF919F918F917F9135
:100B60006F915F914F913F912F911F910F91FF9046
:100B7000EF90DF90CF900F900FBE0F901F901895C1
:100B80009EEF9093E800C7CF1092F100D5CF91303F
:100B900059F48111D3CF4130510581F68091730111
:100BA0008D7F80937301CACF933049F48111C6CFF2
:100BB0004130510519F6809173018260F2CF953072
:100BC00041F48091E80080FFFCCF20682093E3008F
:100BD000B5CF963009F0A9C00B8D1C8D22E0109284
:100BE000E90010926F0110926E01F2122EC0109265
:100BF0006D0110926C010E9412031F8299E099838B
:100C0000FA8291E09E8390EA98879AEF99872091E3
:100C10006E0130916F01275F3F4F3C832B838D83A3
:100C20001092E90010926F0110926E0110936D0105
:100C300000936C0149E050E0BE016F5F7F4F80E0A0
:100C40000E9409020E94120379CF10936D01009354
:100C50006C010E94FE02DC0112960D911C9101159F
:100C6000110509F451C1D801ED91FC910480F58181
:100C7000E02DBE016B5E7F4FC8010995009709F01A
:100C80003EC1F80100851185EACFF3E0FF120EC0E6
:100C90008F89882309F440C0823061F440E860E124
:100CA00080E191E00E94D601811148CF81E28093DA
:100CB000EB0047CF813029F440E86BE084E091E01D
:100CC000F1CF833099F70E94FE02DC011296ED907D
:100CD000FC908E010F5F1F4F6801E114F10479F061
:100CE000D701ED91FC910680F781E02DB801C70195
:100CF0000995080F111DF701E084F184EECFD801AA
:100D00001C92F60101900020E9F73197BF016C19A0
:100D10007D0940E0C601C6CF6EEE70E0FB01449154
:100D200050E080E80E94090209CF973009F4BECF55
:100D3000983021F481E08093F10000CF993009F0E0
:100D4000FDCE837009F0B2CFE1E0F1E081E031E067
:100D500096E32191222371F08093E9003093EB0018
:100D6000DF0111972C912093EC009093ED008F5FA1
:100D7000873079F78EE78093EA001092EA008F8936
:100D800080938101DBCE8B8D9C8D1092E9001092B7
:100D90006F0110926E0190936D0180936C01898DAB
:100DA000811192C08E899D89913A49F4813209F06E
:100DB0007DCF47E050E06BE071E080E0B3CF91324F
:100DC00009F074CF833269F48F89988DB0E0A0E088
:100DD0008093070190930801A0930901B0930A0141
:100DE000ADCE803269F48091E80082FFFCCF67E0ED
:100DF0008BE091E00E94F1028BEF8093E8009ECEA1
:100E0000823209F09BCE8F8980931201EEEFFFE7CB
:100E1000859194918B3F9C4D51F1E0E0F8E08091F9
:100E20000B0190910C01A0910D01B0910E01803B3E
:100E30009440A105B105F1F48091120180FD1AC022
:100E4000EE3F8AE0F80789F587E797E7918380838B
:100E5000809160008093700188E19BE00FB6F89468
:100E6000A895809360000FBE9093600067CEEEEF70
:100E7000FAE0D5CF808191818737974709F05ECE20
:100E8000A8958091600088618093600080917001D6
:100E900080936000EE3F2AE0F20789F08091FE0A1D
:100EA0009091FF0A9183808349CE80819181873719
:100EB000980751F29093FF0A8093FE0AC5CF1092D3
:100EC000FF0A1092FE0A3ACE0E94FE02DC01129640
:100ED0000D911C910115110509F4E8CED801ED9191
:100EE000FC910190F081E02DBE016B5E7F4FC80147
:100EF0000995811123CEF80100851185EBCF1816D5
:100F000019060CF41BCED2CEF1E0FF12BECE62EF7A
:100F100070E004CFCF93DF93FC01DB018181149655
:100F20003C911497682F630F7727771F68307105FE
:100F30009CF5C281D381209739F5B383A283908138
:100F400012969C93129713968C93139715968C91E7
:100F50001597890F808390E080E0831708F5218141
:100F6000C22FD0E0BE0160507F4F16964D915C912C
:100F70001797480F591FEA014881EB0148832F5FFB
:100F800021830196EACFEA0148855985411551052B
:100F9000D1F7B987A887D3CF80E0DF91CF910895AB
:100FA00081E0FBCFE2E8F1E01382128288EE93E069
:100FB000A0E0B0E084839583A683B7838DE191E0C0
:100FC000918380838FEF9FEF95878487E2EDF1E037
:100FD00082E0848385838CED91E0978386831186FC
:100FE00010868FE291E09183808380E8828781E898
:100FF00083870E94FE0262ED71E00E948A07EEED97
:10100000F1E081E0848385838EEE91E0978386838F
:10101000118610868BE391E09183808383E491E0D5
:101020009387828780E591E0958784878BE591E0BF
:10103000978786870E94FE026EED71E00C948A0706
:10104000CF93DF9300D000D0CDB7DEB7789484B5CE
:10105000826084BD84B5816084BD85B5826085BDB4
:1010600085B5816085BD80916E00816080936E0042
:101070001092810080918100826080938100809134
:1010800081008160809381008091800081608093E5
:101090008000809191008260809391008091910006
:1010A0008160809391008091900081608093900096
:1010B0008091C10084608093C1008091C1008260F2
:1010C0008093C1008091C10081608093C1008091B4
:1010D000C30081608093C3008091C00082608093D0
:1010E000C0008091C20081608093C20080917A002C
:1010F000846080937A0080917A00826080937A0085
:1011000080917A00816080937A0080917A00806873
:1011100080937A00109281011092730110927201F3
:101120008091D70081608093D70080EA8093D800B7
:1011300089B5806189BD89B5826089BD09B400FE29
:10114000FDCF0E9483018091D8008F7C80618093C5
:10115000D8008091E000807F8093E0008091E100E2
:101160008E7E8093E1008DE08093E200559A209A74
:1011700044244A9423E0522E612C712C30E0A32E9B
:1011800030E0B32E4BE0942E50EB852E06E111E0BB
:1011900084E7C82E81E0D82E93E1E92E91E0F92E64
:1011A000D801ED918D01E23108F0E251F0E0EF5D00
:1011B000FE4FE49190917B008E2F880F880F8072F4
:1011C0009F7D892B80937B00E770E064E0937C0037
:1011D00080917A00806480937A0080917A0086FD05
:1011E000FCCFA0917800B09179002FE730E00E9409
:1011F0008209A30192010E943209322EF6018191E7
:101200006F01281B330BC90137FF03C091958195EE
:1012100091090297C4F0D7018C9199828A828B83BD
:101220003C828091D50144E050E0BE016F5F7F4F6A
:101230008F5F0E9445028091D5018F5F0E949B01C4
:10124000F60131973082BFEFEB1AFB0AE1E009317A
:101250001E0709F0A5CFA114B10409F497CF0E948D
:10126000000094CF052E97FB1EF400940E944909BC
:1012700057FD07D00E94510907FC03D04EF40C948F
:10128000490950954095309521953F4F4F4F5F4FFD
:10129000089590958095709561957F4F8F4F9F4FE2
:1012A0000895A1E21A2EAA1BBB1BFD010DC0AA1FA7
:1012B000BB1FEE1FFF1FA217B307E407F50720F0BF
:1012C000A21BB30BE40BF50B661F771F881F991F3A
:1012D0001A9469F760957095809590959B01AC0183
:1012E000BD01CF010895A29FB001B39FC001A39F8C
:1012F000700D811D1124911DB29F700D811D11244F
:10130000911D08950E947309B7FF0895821B930BE6
:101310000895EE0FFF1F0590F491E02D0994F894C5
:02132000FFCFFD
:1013220000C18081000000FFFFFFFF00E10000001C
:1013320000000014151613141500000000EC00DB69
:10134200024002A501440102012001000000004305
:10135200038E034503860400000000430345035E39
:10136200048703536D6172744361744C6F6166004C
:101372004761737065724D49444900303030310025
:00000001FF
