:100000000C94B0000C94D8000C94D8000C94D80038
:100010000C94D8000C94D8000C94D8000C94D80000
:100020000C94D8000C94D8000C948E0E0C940C0FE9
:100030000C94D8000C94D8000C94D8000C94D800E0
:100040000C94D8000C94D8000C94D8000C94D800D0
:100050000C94D8000C94D8000C94D8000C94440E46
:100060000C94D8000C94D8000C94D8000C94D800B0
:100070000C94D8000C94D8000C94D8000C94D800A0
:100080000C94D8000C94D8000C94D8000C94D80090
:100090000C94D8000C94D8000C94D8000C94D80080
:1000A0000C94D8000C94D8000C94D800CDCCCC3D46
:1000B0000AD7233C17B7D13877CC2B329595E62455
:1000C0001FB14F0A000020410000C84200401C46FA
:1000D00020BCBE4CCA1B0E5AAEC59D74080B000254
:1000E00002020000090400000102020000052400D1
:1000F0001001052401010104240206052406000163
:100100000705810310004009040100020A000000F5
:1001100007050202400000070583024000000403B7
:10012000090412010002EF02014041233680000160
:100130000102030141726475696E6F204C4C4300EB
:1001400041726475696E6F204C656F6E6172646F89
:1001500000070605040100080A0B0C0D09008611B2
:1001600011241FBECFEFDAE0DEBFCDBF11E0A0E06B
:10017000B1E0E8E0F0E302C005900D92AA3EB107BD
:10018000D9F722E0AAEEB1E001C01D92A438B2076F
:10019000E1F710E0C0EBD0E004C02197FE010E941F
:1001A0001116CF3AD107C9F70E94D4110C94021846
:1001B0000C940000CF93DF93EC0188819981DC01DE
:1001C000ED91FC910190F081E02D64E270E00995E1
:1001D000009741F02FE1FC01238321E02283DF918E
:1001E000CF91089521E02A83FACFFC018091130278
:1001F000882311F13FB7F89482E08093E9002091C1
:10020000F200822F90E01816190614F481E090E0B5
:10021000882339F0289844E6409312024091F10077
:100220004083222339F02091F200211103C02BE6F4
:100230002093E8003FBF08958FEF9FEF08953FB7E9
:10024000F89480910E0290910F02A0911002B0914B
:10025000110226B5A89B05C02F3F19F00196A11DDC
:10026000B11D3FBFBA2FA92F982F8827BC01CD0100
:10027000620F711D811D911D42E0660F771F881F5F
:10028000991F4A95D1F708958F929F92AF92BF928E
:10029000CF92DF92EF92FF924B015C010E941F010F
:1002A0006B017C010E941F016C197D098E099F0959
:1002B000683E734081059105A8F321E0821A9108F8
:1002C000A108B10888EEC80E83E0D81EE11CF11C1D
:1002D00081149104A104B10429F7FF90EF90DF90FD
:1002E000CF90BF90AF909F908F9008958093E9003A
:1002F0008091F200882319F08AE38093E800089542
:100300004091F8015091F9012091F6013091F701E7
:1003100042175307B4F49091E8009570E1F390917F
:10032000E80092FD19C08093F1008091F80190914E
:10033000F90101968F739927892B19F48EEF809319
:10034000E8008091F8019091F90101969093F901EC
:100350008093F80181E0089580E00895EF92FF9284
:100360000F931F93CF93DF93F82E192FE62E042FB0
:1003700081E0860F880F0E94800183E00E94800147
:10038000CF2DD12FEC0EFD2EF11CCE15DF05B9F0CF
:1003900007FF13C0FE0184910E948001182F80E0A6
:1003A0000E948001812321968111EFCFDF91CF91AF
:1003B0001F910F91FF90EF9008958881EDCF81E01C
:1003C000F5CFDF92EF92FF920F931F93CF93DF93BE
:1003D000D82E8A01EB017B01E40EF51ECE15DF0558
:1003E00059F0D7FE12C0FE0184910E94800121962F
:1003F0008111F4CF0FEF1FEFC801DF91CF911F9153
:100400000F91FF90EF90DF9008958881EECF2FB786
:10041000F89487708093E9009091E800892F8072AA
:1004200095FF04C09091F20080E4891B2FBF0895CE
:100430007F928F929F92AF92BF92CF92DF92EF9274
:10044000FF920F931F93CF93DF93C82E8B017A01F6
:1004500080911302811110C08FEF9FEFDF91CF9138
:100460001F910F91FF90EF90DF90CF90BF90AF90D2
:100470009F908F907F9008958091FC0180FF05C030
:100480008091E00082608093E000CE2DDF2DD12CA2
:100490008AEFB82E8C2D8770982E8C2D8072882E26
:1004A0008C2D8074782E9AE3A92E209719F4DD20E4
:1004B00009F452C08C2D0E94070281110AC0BA941F
:1004C000BB2051F261E070E080E090E00E944401C6
:1004D000ECCF8C171D0611F00CF08C2F9FB7F89401
:1004E0009092E9002091E80025FD02C09FBFDDCF7A
:1004F000282F30E0C21BD30B882029F08150A0F0B8
:100500001092F100FBCFF801C7FC0AC0815050F0F7
:1005100041914093F100FACF44914093F10031961C
:100520008150D0F7020F131FDD2021F0A092E800C8
:10053000D12CDCCF8091E80085FD07C0A092E800B7
:10054000DD24D394209791F2F3CF209779F677208A
:1005500069F2A092E800CACF5D9884E68093FB011F
:10056000C7017CCF615030F02091F100FC01208365
:100570000196F8CF289884E680931202089580911E
:10058000EE0181110DC082E08093EA0184E0809346
:10059000EB011092ED011092EC0181E08093EE01ED
:1005A0008AEE91E008950F931F93CF93DF931F92EC
:1005B000CDB7DEB782E0898342E450E06CED70E0B5
:1005C00080E80E94E1010E94BF02DC0112960D91B9
:1005D0001C910115110589F0D801ED91FC91028063
:1005E000F381E02DBE016F5F7F4FC801099597FD34
:1005F00004C0F80100851185ECCF89810F90DF914F
:10060000CF911F910F910895CF93DF93EC018091CB
:100610001201882331F083E00E941802181619068F
:1006200034F081E090E09B838A8380E090E0DF916A
:10063000CF910895CF93DF931F92CDB7DEB7698333
:10064000DC01ED91FC910280F381E02D41E050E06E
:10065000BE016F5F7F4F09950F90DF91CF91089595
:1006600083E00C94760183E00E94070290E00895F5
:10067000CF93DF931F92CDB7DEB7FC0184859585BC
:1006800097FD08C02FEF3FEF358724870F90DF914C
:10069000CF910895CE0101960E94F500019719F4BB
:1006A000898190E0F3CF8FEF9FEFF0CF0F931F93EF
:1006B000CF93DF931F92CDB7DEB78C01FC01848509
:1006C000958597FF0BC0CE0101960E94F50001971A
:1006D00071F4898190E0F80195878487F801848519
:1006E00095850F90DF91CF911F910F9108958FEF16
:1006F0009FEFF1CFFC018485958597FD0BC09FB7D7
:10070000F89482E08093E9008091F2009FBF90E02E
:10071000019608959FB7F89482E08093E900809154
:10072000F2009FBF90E0089580E0089590E080E09F
:100730000895CF93DF931F92CDB7DEB7898341E051
:1007400050E0BE016F5F7F4F80E00E94E10121E039
:10075000019709F020E0822F0F90DF91CF9108954B
:10076000EF92FF920F931F93CF93DF937C018B0146
:10077000CB010196880F0E94990383E00E949903A0
:10078000E701E00EF11EEC16FD0681F089910E9452
:100790009903182F80E00E9499038123A1F7DF912C
:1007A000CF911F910F91FF90EF90089581E0F7CFC7
:1007B000FC0182818F5BFB01808381E008950F93B0
:1007C0001F93CF93DF93CDB7DEB7C456D1090FB6D1
:1007D000F894DEBF0FBECDBFFC01DB019C919E5F94
:1007E0009C939E01295F3F4F8AE5D9011D928A950E
:1007F000E9F788E089838BE08A8322E02C8391E00B
:100800009D839E8339E0398764E06A879E879F874E
:100810003A8B44E24B8B9C8BA0E0B1E0BE8BAD8B5E
:1008200009E010E0188F0F8B998F3B8F6C8F2F8F03
:1008300098A353E059A387E08CA34DA39EA3B8A728
:10084000AFA3A1E4B0E0BAA7A9A786E08BA74CA705
:100850002DA79EA79FA789AB4AAB2BAB2CAB2DAB8B
:100860003FAB48AF59AF9AAF5BAF9CAF2DAF9EAFD8
:1008700021963FAF219722964FAF229723965FAFE5
:10088000239724962FAF249725966FAF259726960A
:100890009FAF269727969FAF279728969FAF2897B9
:1008A0002A963FAF2A9745E02B964FAF2B972D9670
:1008B0002FAF2D9760E470E02F967FAF6EAF2F972C
:1008C00063964FAF639785E264968FAF64976596A2
:1008D0009FAF659766969FAF669767969FAF67973E
:1008E00068963FAF689769964FAF69976B962FAF41
:1008F0006B976D967FAF6EAF6D97A1964FAFA19737
:10090000A2968FAFA297A3969FAFA397A4969FAFEF
:10091000A497A5965FAFA59792819B839B879F5FC6
:100920009A8F9D8F83812C968FAF2C978F5F8068D5
:100930006A968FAF6A9744E650E0BE016F5F7F4FC3
:1009400080E00E94E101CC59DF4F0FB6F894DEBF82
:100950000FBECDBFDF91CF911F910F9108956F3FD3
:10096000B1F0E62FE295EF7044E0E49F900111248E
:10097000DC01ED91FC91E20FF31F6F70B8E06B9F0B
:10098000C001112462817381860F971F089590E042
:1009900080E00895982F80336CF08A3324F08F35EF
:1009A00024F08B3724F481E0089581341CF081E039
:1009B0009B350CF080E008950F931F93CF93DF9346
:1009C000EC018A85811140C00F8118852FB7F894FA
:1009D00080910A0290910B02A0910C02B0910D023D
:1009E0002FBFF80180879187A287B387D801ED9147
:1009F000FC910284F385E02DC801099597FF2AC078
:100A00002FB7F89480910A0290910B02A0910C02EA
:100A1000B0910D022FBFF801408551856285738525
:100A2000841B950BA60BB70B44815581668177819A
:100A300084179507A607B707C8F28FEF9FEF97FDBA
:100A400080E0898781E08A878985DF91CF911F9136
:100A50000F9108959927F3CF1F93CF93DF93EC0164
:100A6000162F0E94DC04811306C01A8681E0DF91F4
:100A7000CF911F91089580E0FACF0F931F93CF93EA
:100A8000DF938C01EB018991882369F0C8010E94F2
:100A9000DC04882379F0FE013197908198130DC012
:100AA000F8011286F0CF90E080E0DF91CF911F91A6
:100AB0000F91089582E090E0F8CF83E090E0F5CFC9
:100AC000CF93DF93EC01CE010E94DC048B304CF419
:100AD00089305CF4882359F081E08E8390E080E0D7
:100AE0000BC08D3011F08032B9F71A86ECCF8E81B1
:100AF000811105C081E090E0DF91CF91089582E0FF
:100B000090E0FACF4F925F926F927F928F929F9276
:100B1000AF92BF92CF92DF92EF92FF920F931F930B
:100B2000CF93DF93EB01DC012C912B32D9F12D32E5
:100B3000D1F50196FF24F394FC01208130ED320FB2
:100B40003A3018F02E3209F042C18C0160E070E0BA
:100B5000CB01F801219130ED832E820E39E038155A
:100B600020F16A3949E97407840749E1940738F5A7
:100B7000AAE0B0E09B01AC010E946315912CB12C5E
:100B8000A12C240135014094509460947094461631
:100B900057066806790698F0680D791D8A1D9B1D19
:100BA0008F01D7CF0196F12CC7CF211108C0FF20AC
:100BB000E9F161307105810550E89507A0F0E12C5D
:100BC000BAE08B2E912CA12CB12C6115710530E867
:100BD00083079105B0F1A50194010E94A515CA01F2
:100BE000B901E394F2CF2C8120782A602C839B01F9
:100BF000AC0188279927DC01821B930BA40BB50B52
:100C000088839983AA83BB838F2DDF91CF911F9116
:100C10000F91FF90EF90DF90CF90BF90AF909F909B
:100C20008F907F906F905F904F9008952C812078E7
:100C300028602C83688379838A839B83FF24F394C1
:100C4000E3CFF801D8012D918D0130ED320F3A300C
:100C500010F4E394F6CF2E3201F58F010F5F1F4F92
:100C6000F8010F5F1F4F2081A0EDDA2ED20EB9E000
:100C7000BD1598F06C3CECEC7E07ECE08E0791051E
:100C800078F7AAE0B0E09B01AC010E9463156D0DFE
:100C9000711D811D911DEA94E3CF20812F7D10E00D
:100CA00000E0253409F05BC021812D32D1F5329668
:100CB000CC24C394DF0110E000E02E2D0E2C000C9C
:100CC000330B5AE0B52EFD01DD9040ED4D0D4A305D
:100CD00008F040C0B09EA001B19E500D11240D2D12
:100CE000DD0C110B00531109040F151FA801420F51
:100CF000531F473251053CF38C81CC20C9F040E0B2
:100D000050E060E070E8F11003C040E050E0BA014C
:100D100080788C608C83488359836A837B83FC2C26
:100D200073CF2B3219F03196C12CC4CF3296FCCF41
:100D300040E050E060E87FEFF11004C040E050E098
:100D400060E87FE780788C608C83488359836A836E
:100D50007B8374CFCC2019F0119501951109208166
:100D6000211135C00E0D111DE7FC1A950E942514A6
:100D700034ECC32E30E0D32E101611063CF0119542
:100D8000019511094CEAC42E40E0D42EE12C011546
:100D9000110591F000FF0CC024E0E29EF001112447
:100DA000EC0DFD1D25913591459154910E948614BD
:100DB00015950795E394EBCFF11090582C8120788E
:100DC0002C602C83688379838A839B8337CFF12CB3
:100DD0001BCFCF92DF92EF92FF92CF93DF9300D0A1
:100DE00000D01F92CDB7DEB7FC0184818F778630AB
:100DF000C1F030F4843011F1853069F180E012C027
:100E00008A3021F08C3079F18830C1F7808191816E
:100E1000A281B3818F3F9105A105B10519F010F0B2
:100E2000EDCF80810F900F900F900F900F90DF917A
:100E3000CF91FF90EF90DF90CF90089580819181C6
:100E40001D82BE016F5F7F4F0E948205CE01019619
:100E50000E94E906E7CF808191811D82BE016F5F0C
:100E60007F4F0496F1CFC080D180E280F38020E0F4
:100E700030E0A901C701B6010E940C1687FDBECF64
:100E800020E030E04FE753E4C701B6010E94201490
:100E900018160CF4B3CFC701B6010E94DD15862FDA
:100EA000C1CFCF92DF92EF92FF92CF93DF9300D02A
:100EB00000D01F92CDB7DEB7FC0184818F778630DA
:100EC000D9F040F48430A9F1853009F43FC090E0B6
:100ED00080E014C08A30F1F08C3009F43FC08830D3
:100EE000B1F780819181A281B381811520E89207B9
:100EF000A105B10560F702C0808190E00F900F90CE
:100F00000F900F900F90DF91CF91FF90EF90DF90B7
:100F1000CF90089580819181A281B381AC01BD0100
:100F200050586F4F7F4F411551056140710578F65C
:100F3000E5CF808191811D82BE016F5F7F4F0E944E
:100F40008205CE0101960E945107D8CF8081918100
:100F50001D82BE016F5F7F4F0496F1CFC080D180AC
:100F6000E280F38020E030E040E057ECC701B601BA
:100F70000E940C1687FDABCF20E03EEF4FEF56E40A
:100F8000C701B6010E94201418160CF4A0CFC701A7
:100F9000B6010E94D615CB01B1CFFC0192899150C8
:100FA00084E0989F90011124A089B189A20FB31FFA
:100FB0001296ED91FC9113973097E9F011962C91D0
:100FC00011978C912817B8F481E0820F11968C93B9
:100FD00088E0289FA0011124E40FF51F309759F0F5
:100FE00014828FEF858317821682BF01892F829525
:100FF000807F820F089560E070E08FEF0895DF92A8
:10100000EF92FF920F931F93CF93DF93EC017B013D
:10101000D12C688979898A89D816E0F484E0D89E31
:1010200080011124060F171FD80112966D917C9133
:101030006115710541F0D701ED91FC910280F381BA
:10104000E02DC7010995F8011382128210821182E6
:10105000D394DFCF1A8A8FEF8C8BC617D70761F036
:10106000D701ED91FC910280F381E02DC701099534
:10107000D98BC88B84E08B8BDF91CF911F910F911F
:10108000FF90EF90DF900895DB01ED91FC911197B7
:101090000280F381E02DBC01CD0109940F931F93D1
:1010A000CF93DF93EC01088119818B819C8100979C
:1010B00049F0FC01208131813C832B83B8010E94DF
:1010C0004408F3CF68817981CE010596DF91CF91F5
:1010D0001F910F910C94FF07CF93DF93EC01E881F0
:1010E000F981B0E0A0E03097F9F09F012C5F3F4F0D
:1010F00062177307A1F4928191509283911114C0E9
:1011000080819181109741F08D939C93BA01CF011A
:10111000DF91CF910C94440899838883F7CFDF0146
:101120000190F081E02DDFCFDF91CF9108958F9274
:101130009F92AF92BF92CF92DF92EF92FF920F9366
:101140001F93CF93DF938C01EB01FC01848180FF1F
:101150000AC048815981608171816C5F7F4FCE01E7
:1011600003960E946C08F8018481807681F1011554
:10117000110569F1D0805E01F5E1AF0EB11C4E01A1
:1011800083E0880E911CEFEFDE16F1F06D2DC501A6
:101190000E94AF047C01FC01C580848187FF07C0E9
:1011A0004881598166817781C4010E946C08BE0123
:1011B000C7010E949708F701848180788483898D14
:1011C0008583D98EDC2CDFCFF801D082D182DF91EC
:1011D000CF911F910F91FF90EF90DF90CF90BF9034
:1011E000AF909F908F900895EF92FF920F931F936F
:1011F000CF93DF937C018B01EA016F3F710509F00A
:10120000B0F4E881F9810480F581E02DAB014B5FFA
:101210005F4FBC01CE010995009749F0FC010383A3
:10122000DF91CF911F910F91FF90EF900895E8818A
:10123000F9810280F381E02DB701CE01099590E09C
:1012400080E0EECFFF920F931F93CF93DF93EC01DB
:10125000F62E8A819B810097C9F06C817D81FC010B
:1012600023812617170691F408811981F80140811E
:101270005181660F771F6F5F7F4F0E94F4080097C0
:1012800019F421E0F80122839B838A838A819B8160
:10129000009759F02C813D81A9014F5F5F4F5D831D
:1012A0004C83820F931FFC01F482DF91CF911F9139
:1012B0000F91FF9008959F92AF92BF92CF92DF92CD
:1012C000EF92FF920F931F93CF93DF9300D000D044
:1012D0001F92CDB7DEB78C010E94DC04D82EF80136
:1012E0001286F12CE12C60EFC62EC8010E94DC04AE
:1012F000F8011286D81609F4B3C0811113C082E038
:1013000090E00F900F900F900F900F90DF91CF9182
:101310001F910F91FF90EF90DF90CF90BF90AF9013
:101320009F9008958C3509F099C0C8010E94DC0493
:10133000882329F3E5E5F1E0853709F083C0F8015A
:10134000128654E0952EB12CA12CC8010E94DC0419
:101350008823A9F2813434F48053803130F083E063
:1013600090E0CFCF8F7D8753F8CF44E0AA0CBB1C11
:101370004A95E1F7A82AF80112869A949110E5CFD0
:10138000C501985D8115944020F47501F3E0FF22BA
:10139000ACCFC5019C5D81159440A8F483E0B822D0
:1013A000B701762F6627770F770F6A297B2990E0A0
:1013B00080E00196603871058105910540F4C8010F
:1013C0000E94220992CFB50190E080E0F3CF19820C
:1013D000262F2F7320682A8326E096958795779588
:1013E00067952A95D1F76032710580F4606C6B8344
:1013F0005E01E4E0AE0EB11CF50162915F0166236F
:1014000009F473CFC8010E942209F6CF262F2F734B
:1014100020682B8386E0769567958A95E1F76031A1
:10142000710538F4606E6C835E01F5E0AF0EB11C9F
:10143000E3CF60686C83CD825E0126E0A20EB11C12
:10144000DBCF32969081992309F489CF8913F9CFA4
:101450008181882309F483CFF8011286682FAFCFEA
:1014600082819381892B19F484E090E04ACF90E047
:1014700080E047CFAF92BF92CF92DF92EF92FF9280
:101480000F931F93CF93DF93DC011296ED91FC91A4
:10149000139714968D919C911597E80FF91F14825C
:1014A0000D911C91119714966D917C911597129640
:1014B0008D919C9113979C012C5F3F4FE801EB812C
:1014C000FC817B01E20EF31E3097B9F04381461791
:1014D000170679F45901AF014C5F5F4FEA14FB0422
:1014E00099F1E501C9905E01EA01D990AE01CD14F0
:1014F000A9F30190F081E02DE7CFED01F8014081E3
:1015000051810E94F408FC01892B21F481E0D8016B
:1015100012968C93A881B98113968D919C91149702
:10152000918380831496FC93EE9313971B821A8207
:10153000CF01DF91CF911F910F91FF90EF90DF903E
:10154000CF90BF90AF90089582818F5F8283F0CF5C
:10155000FC0101900020E9F73197AF01481B590BBE
:10156000BC0184E192E00C9404038F929F92AF92AD
:10157000BF920F931F93CF93DF93CDB7DEB7A197A1
:101580000FB6F894DEBF0FBECDBF19A2423008F4EB
:101590004AE08E010F5D1F4F842E912CB12CA12C9F
:1015A000A50194010E94A515E62FB901CA01EA30F0
:1015B000F4F4E05DD801EE938D01232B242B252B31
:1015C00079F790E080E0109719F0CD010E94A80A09
:1015D000A1960FB6F894DEBF0FBECDBFDF91CF91BD
:1015E0001F910F91BF90AF909F908F900895E95CED
:1015F000E1CFDB0113962C9113972330F9F4FC0112
:1016000012968C91813081F4828593850097B1F098
:10161000FC0101900020E9F73197BF01681B790BAD
:101620000E94B00390E00895823019F48485958576
:10163000EDCF833019F486859785E8CF90E080E080
:101640000895DF92EF92FF920F931F93CF93DF9352
:101650006115710561F460E070E08FEF9D2DDF9101
:10166000CF911F910F91FF90EF90DF9008958A0125
:10167000EB01DC01FC900B5E1F4F6F2DC8010E9437
:10168000AF04009741F3FC01E580009721F3068049
:10169000F781E02DDE010D900020E9F79D0121503A
:1016A00031092C1B3D0BB0E0A0E0309739F0DF0191
:1016B0000D900020E9F71197AE1BBF0B2A173B07CF
:1016C00051F4DE012C0F3D1FA217B30769F05D91A5
:1016D00041915417C9F36E2DC8010E94AF040097C1
:1016E00009F4B9CFFE2CCFCFBC018F2DDE2CB6CFA5
:1016F000FF920F931F93CF93DF93FC01C181D2819F
:101700000581168163817481CE014A9641F490E08F
:1017100080E0DF91CF911F910F91FF9008952E8D62
:1017200025FFF5CFAE010E94210BFB01309779F325
:10173000848186FFECCF65966081CE010E94AF0464
:10174000009739F3FC01F5800115110511F36F2D98
:10175000CE010E94AF04009711F0FC01F58001500A
:101760001109009789F7D5CF0E94780B009711F0E7
:101770000C94510790E080E0089584E0E9E8F1E0FE
:10178000DB0101900D928A95E1F784E008958F9234
:101790009F92AF92BF92CF92DF92EF92FF920F9300
:1017A0001F93CF93DF936C018B01DB015996FC9063
:1017B000BFEFFB1621F16F2DC80145960E94AF04C3
:1017C000EC018D81F801818F209709F496C01C826D
:1017D0008FEF8D831F821E82D60111966C916F3F11
:1017E00009F49FC0C80145960E94AF04FC01F58230
:1017F000D6011196FC92BE018F2D9D8084C05B01A5
:10180000F5E0AF0EB11CDB01ED90FC9011975796FF
:101810008C91882349F0C5010E94CD07C62FD72F90
:10182000209711F0F82ED8CFF801C789908DC913F1
:1018300025C0C03109F461C0CC0F65897689D70114
:10184000ED91FC91B4E0CB9FA0011124A616B70640
:1018500009F04BC00190F081E02DBA01C701099554
:10186000009709F44AC020E1F501DC0101900D92D6
:101870002A95E1F7F801968B858BC08FD801559694
:10188000CD91DC91569757968C91579721E0280F70
:1018900057962C93B4E08B9FC0011124C80FD91F19
:1018A00090E1892E203111F48FE0882EE8E08E9EA1
:1018B000B0011124D701ED91FC910190F081E02D50
:1018C000C70109959B838A83892B09F4812C88821F
:1018D0001982CD2B91F0C5010E94CD07C62FD72FBD
:1018E000F82E209709F078CF08C00480F581E02D0C
:1018F000C7010995009709F0BDCF81E0F801828307
:1019000060E070E08FEF992DDF91CF911F910F91E3
:10191000FF90EF90DF90CF90BF90AF909F908F900F
:101920000895F601F082F18266CF8F929F92AF9276
:10193000BF92CF92DF92EF92FF920F931F93CF93BC
:10194000DF93EC018B01D42E0E9460057C01892B72
:1019500009F047C0CE010E94DC04863609F452C16A
:1019600024F5873229F08B3561F1823209F053C1B9
:101970001D821C828A819B81892B31F48881998107
:101980000E94DA009B838A83CE010E945B097C015E
:10199000892B39F5CE010E943A0AF801248120787A
:1019A00025602483918380831CC0843709F412C18D
:1019B0008B3709F45BC08E3609F02DC161E771E009
:1019C00012C1F80184818078806484830115110537
:1019D00019F08FEF80838183D11011C025E0E22EB2
:1019E000F12CC701DF91CF911F910F91FF90EF90E4
:1019F000DF90CF90BF90AF909F908F9008951A8600
:101A0000CE010E946005009709F085C06DE5CE010A
:101A10000E942C058111E5CFDA946B857C85C80185
:101A20000E94C70B6115710521F484E0E82EF12CAA
:101A3000D8CF4D2DCE010E94950C009709F06BC0B8
:101A4000CE010E946005009709F065C06DE5CE01EA
:101A50000E942C058111C5CF6CE2CE010E942C059D
:101A60008111DBCF93E0E92EF12CBBCFF80184810B
:101A70008078806284830115110519F08FEF8083CF
:101A80008183DD2009F4AACF1A86CE010E94600569
:101A9000009709F040C06DE7CE010E942C0581112E
:101AA000A0CFBB24BA94BD0C1D821C828A819B816D
:101AB000892B31F4888199810E94DA009B838A8383
:101AC000CE010E94DC048732E1F08232D1F0CE01F7
:101AD0000E94DC04D82E0E94CA04882319F21A86B8
:101AE0006D2DCE010E942209CE010E94DC04D82E69
:101AF0000E94CA048111F3CF8A819B81892B31F422
:101B000094CFCE010E945B09009729F4CE010E9478
:101B10006005009711F07C0164CF6AE3CE010E945A
:101B20002C05882309F49ECFEA81FB818C819D815D
:101B3000E80FF91F14824B855C856A817B816C5F9D
:101B40007F4FC8010E94210BCB016B01672BC9F5A8
:101B5000CE010E943A0A4C016B857C85C8010E9427
:101B6000C70B6B016115710509F45FCFFB0184811F
:101B700080688483F4E08F0E911CF6019782868240
:101B80004B2DB601CE010E94950C009721F6CE0197
:101B90000E946005009709F0BECF6DE7CE010E945C
:101BA0002C0581111ECF6CE2CE010E942C058823EA
:101BB00009F458CFCE010E946005009709F474CF54
:101BC000AACF6B857C850E949708F6018481807876
:101BD0008483D6CFF801848180788660848381E015
:101BE000808366E671E0CE01DF91CF911F910F9166
:101BF000FF90EF90DF90CF90BF90AF909F908F902D
:101C00000C943D05F801848180788660848310827D
:101C10006BE671E0E8CFCE010E94DC045E01FDE0DE
:101C2000AF0EB11CD12C9A2CCB2C803374F08A339C
:101C300074F49FE3D91699F01A86D394F501819331
:101C40005F01CE010E94DC04F0CF8B3291F393ED63
:101C5000980F923070F3982F9F7D953451F3CD0DEE
:101C6000D11D1D86B801892D9C2D0E9482058111F0
:101C7000B8CEF8CECB01BA010C943C17CB010C9432
:101C8000B316CB010C9417161F920F920FB60F923A
:101C900011242F933F938F939F93AF93BF93809182
:101CA0000A0290910B02A0910C02B0910D023091AA
:101CB000090223E0230F2D3758F50196A11DB11D10
:101CC0002093090280930A0290930B02A0930C02C6
:101CD000B0930D0280910E0290910F02A09110021C
:101CE000B09111020196A11DB11D80930E02909337
:101CF0000F02A0931002B0931102BF91AF919F9178
:101D00008F913F912F910F900FBE0F901F901895BC
:101D100026E8230F0296A11DB11DD2CF1F920F926C
:101D20000FB60F9211242F933F934F935F936F93AE
:101D30007F938F939F93AF93BF93CF93EF93FF9333
:101D4000C091E1008091E100837F8093E100C3FFB7
:101D50000FC01092E90081E08093EB001092EC003C
:101D600082E38093ED001092130288E08093F000EC
:101D7000C2FF1BC083E00E9476018091FB01882393
:101D800041F08091FB0181508093FB01811101C0E2
:101D90005D9A80911202882341F080911202815055
:101DA00080931202811101C0289AC4FF23C0809140
:101DB000E2008E7E81608093E2008091E1008F7E60
:101DC0008093E1008091FC018E7E80618093FC0114
:101DD000FF91EF91CF91BF91AF919F918F917F91A3
:101DE0006F915F914F913F912F910F900FBE0F9088
:101DF0001F901895C0FFECCF8091E2008E7E80612D
:101E00008093E2008091E1008E7E8093E1008091DA
:101E1000FC018E7E8160DACF1F920F920FB60F9277
:101E20001124CF92DF92EF92FF920F931F932F9383
:101E30003F934F935F936F937F938F939F93AF9352
:101E4000BF93EF93FF93CF93DF93CDB7DEB76C973C
:101E5000DEBFCDBF1092E9008091E80083FF25C06E
:101E600068E0CE0145960E94B20282EF8093E800BE
:101E70008D8987FF39C09091E80090FFFCCF982FA3
:101E8000907609F034C19E894F89588D2F89F88C3E
:101E9000911131C0803861F58091FD018093F1008E
:101EA0001092F1008EEF8093E8006C960FB6F894D4
:101EB000DEBF0FBECDBFDF91CF91FF91EF91BF91FC
:101EC000AF919F918F917F916F915F914F913F91D2
:101ED0002F911F910F91FF90EF90DF90CF900F9077
:101EE0000FBE0F901F9018959EEF9093E800C7CFFC
:101EF0001092F100D5CF913059F48111D3CF4130F8
:101F0000510581F68091FD018D7F8093FD01CACF3F
:101F1000933049F48111C6CF4130510519F68091B3
:101F2000FD018260F2CF953041F48091E80080FF9E
:101F3000FCCF20682093E300B5CF963009F0A9C00C
:101F40000B8D1C8D22E01092E9001092F901109285
:101F5000F801F2122EC01092F7011092F6010E94C1
:101F6000D3021F8299E09983FA8291E09E8390EADE
:101F700098879AEF99872091F8013091F901275FAE
:101F80003F4F3C832B838D831092E9001092F9011F
:101F90001092F8011093F7010093F60149E050E028
:101FA000BE016F5F7F4F80E00E94E1010E94D3027B
:101FB00079CF1093F7010093F6010E94BF02DC0174
:101FC00012960D911C910115110509F451C1D8010A
:101FD000ED91FC910480F581E02DBE016B5E7F4F99
:101FE000C8010995009709F03EC1F80100851185E7
:101FF000EACFF3E0FF120EC08F89882309F440C0B6
:10200000823061F440E860E180E491E00E94AE013A
:10201000811148CF81E28093EB0047CF813029F4D2
:1020200040E86BE084E391E0F1CF833099F70E94C0
:10203000BF02DC011296ED90FC908E010F5F1F4FE6
:102040006801E114F10479F0D701ED91FC9106806B
:10205000F781E02DB801C7010995080F111DF7019F
:10206000E084F184EECFD8011C92F60101900020AB
:10207000E9F73197BF016C197D0940E0C601C6CF71
:102080006EE171E0FB01449150E080E80E94E101C3
:1020900009CF973009F4BECF983021F481E08093C6
:1020A000F10000CF993009F0FDCE837009F0B2CF76
:1020B000E1E0F1E081E031E096E32191222371F04B
:1020C0008093E9003093EB00DF0111972C9120936E
:1020D000EC009093ED008F5F873079F78EE7809367
:1020E000EA001092EA008F8980931302DBCE8B8D79
:1020F0009C8D1092E9001092F9011092F8019093D2
:10210000F7018093F601898D811192C08E899D8996
:10211000913A49F4813209F07DCF47E050E06BE01D
:1021200071E080E0B3CF913209F074CF833269F46B
:102130008F89988DB0E0A0E080930701909308010B
:10214000A0930901B0930A01ADCE803269F4809169
:10215000E80082FFFCCF67E08BE091E00E94B202D2
:102160008BEF8093E8009ECE823209F09BCE8F8960
:1021700080931201EEEFFFE7859194918B3F9C4D88
:1021800051F1E0E0F8E080910B0190910C01A091F9
:102190000D01B0910E01803B9440A105B105F1F411
:1021A0008091120180FD1AC0EE3F8AE0F80789F5A0
:1021B00087E797E791838083809160008093FA019D
:1021C00088E19BE00FB6F894A895809360000FBE5D
:1021D0009093600067CEEEEFFAE0D5CF80819181D9
:1021E0008737974709F05ECEA89580916000886197
:1021F000809360008091FA0180936000EE3F2AE0B6
:10220000F20789F08091FE0A9091FF0A9183808302
:1022100049CE808191818737980751F29093FF0AC8
:102220008093FE0AC5CF1092FF0A1092FE0A3ACEA2
:102230000E94BF02DC0112960D911C91011511053F
:1022400009F4E8CED801ED91FC910190F081E02DE8
:10225000BE016B5E7F4FC8010995811123CEF80145
:1022600000851185EBCF181619060CF41BCED2CEC3
:10227000F1E0FF12BECE62E271E004CFCF93DF93B4
:10228000FC01DB01818114963C911497682F630F48
:102290007727771F683071059CF5C281D38120971D
:1022A00039F5B383A283908112969C93129713966B
:1022B0008C93139715968C911597890F808390E0D6
:1022C00080E0831708F52181C22FD0E0BE01605065
:1022D0007F4F16964D915C911797480F591FEA0151
:1022E0004881EB0148832F5F21830196EACFEA0101
:1022F0004885598541155105D1F7B987A887D3CFAE
:1023000080E0DF91CF91089581E0FBCFE4E1F2E03E
:102310001382128288EE93E0A0E0B0E0848395837C
:10232000A683B7838FE291E0918380838FEF9FEF45
:1023300095878487E4E6F2E082E0848385838EE6F5
:1023400092E0978386831186108681E491E09183E1
:10235000808380E8828781E883870E94BF0264E6E9
:1023600072E00E943E11E0E7F2E081E08483858321
:1023700080E892E097838683118610868DE491E051
:102380009183808386E791E09387828783E891E059
:10239000958784878EE891E0978786870E94BF02A1
:1023A00060E772E00C943E11CF93DF93CDB7DEB7B8
:1023B000CC56D1090FB6F894DEBF0FBECDBF7894CE
:1023C00084B5826084BD84B5816084BD85B582603A
:1023D00085BD85B5816085BD80916E0081608093EB
:1023E0006E00109281008091810082608093810054
:1023F0008091810081608093810080918000816064
:102400008093800080919100826080939100809100
:102410009100816080939100809190008160809311
:1024200090008091C10084608093C1008091C100C0
:1024300082608093C1008091C10081608093C1005F
:102440008091C30081608093C3008091C00082604E
:102450008093C0008091C20081608093C20080910F
:102460007A00846080937A0080917A008260809301
:102470007A0080917A00816080937A0080917A005E
:10248000806880937A00109213021092FD011092DE
:10249000FC018091D70081608093D70080EA80930F
:1024A000D80089B5806189BD89B5826089BD09B4CC
:1024B00000FEFDCF61E070E080E090E00E9444010A
:1024C0008091D8008F7C80618093D8008091E0005B
:1024D000807F8093E0008091E1008E7E8093E10018
:1024E0008DE08093E200559A209A8FEF9FEF9093B2
:1024F00021028093200244244A94F3E05F2E612C51
:10250000712C8E01025B1F4F180145E0240E311C17
:1025100048015AE1850E911C84E192E00E947A0301
:10252000892B09F4BEC043E151E0F8015183408397
:10253000128214821382368A258A178A84E0808F59
:102540008FEF818F168EBA01C1010E94FF07F8013B
:102550001282E080F180F80183819481009751F02C
:10256000FC0120813181F80134832383B7010E946B
:102570004408F1CF168E1A8309831C821B821E82A7
:102580001D821F8284E192E0998788871B861D87C0
:102590000C874AE0B401CE0101960E94950C7C01A3
:1025A000892B51F48A85882339F0F801868D83FFC1
:1025B00003C0E3E0EE2EF12C8B819C81009731F07B
:1025C000E981FA81608171810E944408EF2899F0C5
:1025D00083E991E00E94A80A88EA91E00E94A80A93
:1025E000C8010E944E0880E090E0892B09F494CF46
:1025F0000E94000091CFF801868D85FD10C1D12C7D
:10260000C12C1B830A8356EBE52E51E0F52EFD828B
:10261000EC821F821E82CE0101960E94B40B1B83A6
:102620000A83FD82EC8281E090E09F838E83CE015D
:1026300001960E94B40B1B830A83FD82EC8282E028
:1026400090E09F838E83CE0101960E94B40BD092BE
:102650000802C092070265E1C62E61E0D62EF12C79
:10266000E12C76EBA72E71E0B72E1B830A83BD8287
:10267000AC82FF82EE82CE0101960E94780B009719
:1026800009F4DCC00E94E906F60181936F01FFEFB7
:10269000EF1AFF0A43E0E416F10439F7C8010E947B
:1026A0004E088FEB91E00E94A80AC0900702D090DC
:1026B00008020D2C000CEE08FF084AE0C701B60125
:1026C000F7FE0DC06DE284E192E00E941A036627D6
:1026D0007727CB016C197D098E099F094AE00E947A
:1026E000B50A86EE91E00E94A80A6091150170E09B
:1026F00090E080E04AE00E94B50A86EE91E00E94F8
:10270000A80A6091160170E090E080E04AE00E9423
:10271000B50A86EE91E00E94A80A6091170170E068
:1027200090E080E04AE00E94B50A88EA91E00E94C9
:10273000A80A68EB7BE080E090E00E9444011092E0
:102740000602E0910602E33008F04DCFF0E0E85DCC
:10275000FE4FE081E23108F0E251F0E0EF5AFE4F27
:10276000E49190917B008E2F880F880F80729F7D5F
:10277000892B80937B00E770E064E0937C0080917C
:102780007A00806480937A0080917A0086FDFCCF85
:10279000E0907800F0907900F0920502E092040257
:1027A000D09006028D2D90E09C01220F331FF9017D
:1027B000E250FE4F5F01208131812E153F0559F116
:1027C000A701421B530B4530510528F18B5E9E4FEC
:1027D000FC018081FBE0F98340EB4A838B83970106
:1027E000AFE7B0E00E94C715A30192010E94441513
:1027F0002C838091670244E050E0BE016F5F7F4F01
:102800008F5F0E941802809167028F5F0E9476019D
:10281000F501F182E082D394D092060292CFA80112
:102820006BEA71E0C4010E94210B6115710509F486
:10283000E6CECB010E9451076C01E3CE80E024CFAD
:102840000E94621408F481E00895E89409C097FB9F
:102850003EF490958095709561957F4F8F4F9F4F77
:102860009923A9F0F92F96E9BB279395F6958795BB
:1028700077956795B795F111F8CFFAF4BB0F11F47E
:1028800060FF1BC06F5F7F4F8F4F9F4F16C0882325
:1028900011F096E911C0772321F09EE8872F762F5B
:1028A00005C0662371F096E8862F70E060E02AF09C
:1028B0009A95660F771F881FDAF7880F9695879588
:1028C00097F90895990F0008550FAA0BE0E8FEEF5D
:1028D00016161706E807F907C0F012161306E407E4
:1028E000F50798F0621B730B840B950B39F40A26DD
:1028F00061F0232B242B252B21F408950A2609F4BB
:10290000A140A6958FEF811D811D08950E94991405
:102910000C940A150E94FC1438F00E94031520F054
:10292000952311F00C94F3140C94F91411240C94C5
:102930003E150E941B1570F3959FC1F3950F50E053
:10294000551F629FF001729FBB27F00DB11D639F61
:10295000AA27F00DB11DAA1F649F6627B00DA11D07
:10296000661F829F2227B00DA11D621F739FB00DAD
:10297000A11D621F839FA00D611D221F749F33271D
:10298000A00D611D231F849F600D211D822F762FB6
:102990006A2F11249F5750409AF0F1F088234AF093
:1029A000EE0FFF1FBB1F661F771F881F91505040FF
:1029B000A9F79E3F510580F00C94F3140C943E153A
:1029C0005F3FE4F3983ED4F3869577956795B79586
:1029D000F795E7959F5FC1F7FE2B880F911D9695A0
:1029E000879597F9089597F99F6780E870E060E010
:1029F00008959FEF80EC089500240A941616170698
:102A000018060906089500240A94121613061406DF
:102A100005060895092E0394000C11F4882352F042
:102A2000BB0F40F4BF2B11F460FF04C06F5F7F4FFA
:102A30008F4F9F4F089557FD9058440F551F59F0E1
:102A40005F3F71F04795880F97FB991F61F09F3F9B
:102A500079F087950895121613061406551FF2CFC4
:102A60004695F1DF08C0161617061806991FF1CF14
:102A700086957105610508940895E894BB2766273B
:102A80007727CB0197F90895052E97FB1EF4009444
:102A90000E945B1557FD07D00E94A51507FC03D0C7
:102AA0004EF40C945B1550954095309521953F4F11
:102AB0004F4F5F4F089590958095709561957F4F2A
:102AC0008F4F9F4F08950E94C715A59F900DB49FEB
:102AD000900DA49F800D911D112408952F923F9277
:102AE0004F925F926F927F928F929F92AF92BF921E
:102AF000CF92DF92EF92FF920F931F93CF93DF93CA
:102B0000CDB7DEB7CA1BDB0B0FB6F894DEBF0FBE26
:102B1000CDBF09942A88398848885F846E847D8473
:102B20008C849B84AA84B984C884DF80EE80FD8075
:102B30000C811B81AA81B981CE0FD11D0FB6F894EB
:102B4000DEBF0FBECDBFED010895A1E21A2EAA1B74
:102B5000BB1BFD010DC0AA1FBB1FEE1FFF1FA2174D
:102B6000B307E407F50720F0A21BB30BE40BF50B4A
:102B7000661F771F881F991F1A9469F760957095D3
:102B8000809590959B01AC01BD01CF010895A29F56
:102B9000B001B39FC001A39F700D811D1124911D31
:102BA000B29F700D811D1124911D08950E94DD15A5
:102BB0006894B1110C943E1508950E94231588F075
:102BC0009F5798F0B92F9927B751B0F0E1F0660FF1
:102BD000771F881F991F1AF0BA95C9F714C0B13032
:102BE00091F00E943D15B1E008950C943D15672FBA
:102BF000782F8827B85F39F0B93FCCF38695779561
:102C00006795B395D9F73EF4909580957095619549
:102C10007F4F8F4F9F4F08950E94621408F48FEFEB
:102C20000895EE0FFF1F0590F491E02D09940F9386
:102C30001F93CF93DF938230910510F482E090E0F0
:102C4000E0918202F091830230E020E0B0E0A0E069
:102C5000309799F42115310509F44AC0281B390B26
:102C600024303105D8F58A819B816115710589F180
:102C7000FB0193838283FE0111C040815181028157
:102C8000138148175907E0F04817590799F410972E
:102C900061F012960C93129713961C933296CF0103
:102CA000DF91CF911F910F910895009382021093AD
:102CB0008302F4CF2115310551F04217530738F044
:102CC000A901DB019A01BD01DF01F801C1CFEF01CC
:102CD000F9CF9093830280938202CDCFFE01E20F61
:102CE000F31F819391932250310939832883D7CFE1
:102CF0002091800230918102232B41F420911A010E
:102D000030911B01309381022093800220911801A1
:102D1000309119012115310541F42DB73EB740918D
:102D20001C0150911D01241B350BE0918002F09194
:102D30008102E217F307A0F42E1B3F0B2817390777
:102D400078F0AC014E5F5F4F2417350748F04E0F07
:102D50005F1F5093810240938002819391939FCF94
:102D6000F0E0E0E09CCFCF93DF930097E9F0FC0127
:102D7000329713821282A0918202B0918302ED01F8
:102D800030E020E01097A1F420813181820F931F61
:102D900020918002309181022817390709F061C023
:102DA000F0938102E0938002DF91CF910895EA01D0
:102DB000CE17DF07E8F54A815B819E014115510579
:102DC000B1F7E901FB83EA8349915991C40FD51FFB
:102DD000EC17FD0761F4808191810296840F951FA5
:102DE000E90199838883828193819B838A83F0E0C0
:102DF000E0E012968D919C9113970097B9F52D9173
:102E00003C911197CD010296820F931F2091800271
:102E1000309181022817390739F6309751F5109211
:102E2000830210928202B0938102A0938002BCCFF1
:102E3000D383C28340815181840F951FC817D9075E
:102E400061F44E5F5F4F88819981480F591F51830C
:102E500040838A819B81938382832115310509F008
:102E6000B0CFF0938302E09382029ECFFD01DC019C
:102E7000C0CF13821282D7CFB0E0A0E0E2E4F7E146
:102E80000C9470158C01009751F4CB010E94171619
:102E90008C01C801CDB7DEB7E0E10C948C15FC01C4
:102EA000E60FF71F9C0122503109E217F30708F4DF
:102EB0009DC0D901CD91DC911197C617D70798F025
:102EC000C530D10530F3CE0104978617970708F374
:102ED000C61BD70B2297C193D1936D937C93CF01DF
:102EE0000E94B316D6CF5B01AC1ABD0A4C018C0E02
:102EF0009D1EA0918202B0918302512C412CF12C95
:102F0000E12C109731F58091800290918102881513
:102F1000990509F05CC04616570608F058C0809124
:102F2000180190911901009741F48DB79EB7409117
:102F30001C0150911D01841B950BE817F90708F03F
:102F400055C0F0938102E0938002F90171836083A0
:102F5000A0CF8D919C91119712966C901297139619
:102F60007C901397A815B90559F56C0142E0C40E81
:102F7000D11CCA14DB0420F1AC014A195B09DA0147
:102F80001296159780F06282738251834083D90133
:102F90006D937C93E114F10471F0D7011396FC93C7
:102FA000EE93129776CF22968C0F9D1FF901918395
:102FB0008083F301EFCFF0938302E093820269CF25
:102FC0004816590608F42C017D01D3019ACFCB0194
:102FD0000E9417167C01009749F0AE01B8010E94CB
:102FE000F917C8010E94B316870153CF10E000E023
:102FF00050CFFB01DC0102C001900D9241505040C6
:08300000D8F70895F894FFCF02
:1030080000C18081000000FFFFFFFF00E100000019
:103018000000002201010203000084028000000079
:103028000000410E3E0E3A0E131415000000001A5F
:10303800030403330330037A033803560300000004
:10304800009403DF039603BD0B0000000094039671
:1030580003F90AD8032F2F22225C5C6208660C6EE3
:103068000A720D740900747275650066616C736587
:10307800006E756C6C00536D6172744361744C6FB3
:103088006166004761737065724D4944490030308C
:103098003031004661696C656420746F207061721C
:1030A8007365204A534F4E000D0A007265736F6CAA
:1030B8007574696F6E00636356616C756573004360
:1030C8006F6E66696775726174696F6E20287265C4
:1030D800732D6363312D6363322D63633329202D90
:0A30E8002D3E20202000203A200099
:00000001FF
